:020000040800F2
:1000000000000320D1140008051400080B14000898
:1000100011140008171400081D1400080000000047
:100020000000000000000000000000002314000891
:1000300031140008000000003F1400084D140008AF
:1000400021150008211500082115000821150008B8
:1000500021150008211500082115000821150008A8
:100060002115000821150008211500082115000898
:100070002115000821150008211500082115000888
:100080002115000821150008211500082115000878
:100090002115000821150008211500082115000868
:1000A0002115000821150008211500082115000858
:1000B0002115000821150008211500082115000848
:1000C0002115000821150008211500082115000838
:1000D0002115000821150008211500082115000828
:1000E0002115000821150008211500082115000818
:1000F0002115000821150008211500082115000808
:1001000021150008211500082115000821150008F7
:1001100021150008211500085D14000821150008AC
:1001200021150008211500082115000821150008D7
:1001300021150008211500082115000821150008C7
:1001400021150008211500082115000821150008B7
:1001500021150008211500082115000821150008A7
:100160002115000821150008211500082115000897
:100170002115000871140008211500080000000076
:100180002115000821150008211500082115000877
:100190002115000821150008211500082115000867
:0C01A000851400082115000899140008BF
:1001AC0010B5054C237833B9044B13B10448AFF3A5
:1001BC0000800123237010BDFC0000200000000013
:1001CC00389F000808B5034B1BB103490348AFF334
:1001DC00008008BD0000000000010020389F0008CE
:1001EC0053B94AB9002908BF00281CBF4FF0FF3192
:1001FC004FF0FF3000F074B9ADF1080C6DE904CE8E
:10020C0000F006F8DDF804E0DDE9022304B07047E5
:10021C002DE9F047089D04468E46002B4DD18A42AD
:10022C00944669D9B2FA82F252B101FA02F3C2F1E0
:10023C00200120FA01F10CFA02FC41EA030E944071
:10024C004FEA1C48210CBEFBF8F61FFA8CF708FB92
:10025C0016E341EA034306FB07F199420AD91CEB6A
:10026C00030306F1FF3080F01F81994240F21C819C
:10027C00023E63445B1AA4B2B3FBF8F008FB1033E4
:10028C0044EA034400FB07F7A7420AD91CEB040419
:10029C0000F1FF3380F00A81A74240F207816444E9
:1002AC00023840EA0640E41B00261DB1D44000236E
:1002BC00C5E900433146BDE8F0878B4209D9002DD2
:1002CC0000F0EF800026C5E9000130463146BDE85C
:1002DC00F087B3FA83F6002E4AD18B4202D38242C6
:1002EC0000F2F980841A61EB030301209E46002D75
:1002FC00E0D0C5E9004EDDE702B9FFDEB2FA82F2CA
:10030C00002A40F09280A1EB0C014FEA1C471FFA27
:10031C008CFE0126200CB1FBF7F307FB131140EA0E
:10032C0001410EFB03F0884208D91CEB010103F1DB
:10033C00FF3802D2884200F2CB804346091AA4B29D
:10034C00B1FBF7F007FB101144EA01440EFB00FE71
:10035C00A64508D91CEB040400F1FF3102D2A645D6
:10036C0000F2BB800846A4EB0E0440EA03409CE775
:10037C00C6F12007B34022FA07FC4CEA030C20FA22
:10038C0007F401FA06F31C43F9404FEA1C4900FA42
:10039C0006F3B1FBF9F8200C1FFA8CFE09FB1811BF
:1003AC0040EA014108FB0EF0884202FA06F20BD932
:1003BC001CEB010108F1FF3A80F08880884240F282
:1003CC008580A8F102086144091AA4B2B1FBF9F0C6
:1003DC0009FB101144EA014100FB0EFE8E4508D9C1
:1003EC001CEB010100F1FF346CD28E456AD9023846
:1003FC00614440EA0840A0FB0294A1EB0E01A1422B
:10040C00C846A64656D353D05DB1B3EB080261EB98
:10041C000E0101FA07F722FA06F3F1401F43C5E972
:10042C00007100263146BDE8F087C2F12003D840A8
:10043C000CFA02FC21FA03F3914001434FEA1C47EA
:10044C001FFA8CFEB3FBF7F007FB10360B0C43EADC
:10045C00064300FB0EF69E4204FA02F408D91CEB8C
:10046C00030300F1FF382FD29E422DD9023863448A
:10047C009B1B89B2B3FBF7F607FB163341EA03412A
:10048C0006FB0EF38B4208D91CEB010106F1FF3879
:10049C0016D28B4214D9023E6144C91A46EA004670
:1004AC0038E72E46284605E70646E3E61846F8E602
:1004BC004B45A9D2B9EB020864EB0C0E0138A3E74B
:1004CC004646EAE7204694E74046D1E7D0467BE72C
:1004DC00023B614432E7304609E76444023842E7A4
:1004EC00704700BF80B500AF01F016F800F016F8A9
:1004FC0000F084FA00F07CF800F08EF800F02EFA90
:10050C0000F0BCF800F0FAF800F078F900F0ACF963
:10051C0000F0FAF908F0DAFFFEE7000080B594B0BD
:10052C0000AF07F1200330220021184609F0F6FC39
:10053C0007F10C0300221A605A609A60DA601A61A3
:10054C000023BB60284B1B6C274A43F08053136479
:10055C00254B1B6C03F08053BB60BB6800237B6096
:10056C00224B1B68214A43F4404313601F4B1B680A
:10057C0003F440437B607B6801233B624FF4803380
:10058C007B620223BB634FF48003FB6304233B6455
:10059C00A8237B640223BB640723FB6407F12003BD
:1005AC00184603F073FC0346002B01D000F048FB07
:1005BC000F23FB6002233B6100237B614FF4A053AC
:1005CC00BB614FF48053FB6107F10C030521184606
:1005DC0003F0D4FE0346002B01D000F031FB00BF2A
:1005EC005037BD4680BD00BF00380240007000404F
:1005FC0080B500AF064B074A1A60054801F0D4F8E5
:10060C000346002B01D000F01BFB00BF80BD00BFD8
:10061C00180100200030024080B500AF154B164A7F
:10062C001A60144B00225A60124B00229A60114B34
:10063C000022DA600F4B00229A620E4B0022DA6223
:10064C000C4B00221A630B4B00225A63094801F031
:10065C00C7F80346002B01D000F0F2FA012105483F
:10066C0001F018FA0346002B01D000F0E9FA00BFA4
:10067C0080BD00BF2001002000B0024080B500AF5B
:10068C001B4B1C4A1A601A4B1B4A5A60184B00220F
:10069C009A60174B0022DA60154B4FF480421A61B6
:1006AC00134B00225A61124B00229A61104B00220C
:1006BC00DA610F4B00221A620D4801F043FC03462D
:1006CC00002B01D000F0BCFA0021094801F07EFD9E
:1006DC000346002B01D000F0B3FA0021044801F0CE
:1006EC00B1FD0346002B01D000F0AAFA00BF80BD7B
:1006FC0060010020005C0040A086010080B58EB037
:10070C0000AF3B1D34220021184609F007FC394B81
:10071C00394A1A60374B00225A60364B00229A60D5
:10072C00344B0022DA60334B00221A61314B092220
:10073C005A61304B01229A612E4B1D22DA612D4BEE
:10074C0003221A622B4B40F20D125A62294B40F2D3
:10075C0043129A62274B40F21712DA62254B40F291
:10076C0047121A63234B002283F83420214B0022BA
:10077C0083F835201F4B002283F836201D4801F0EA
:10078C00A1FD0346002B01D000F05AFA00237B6038
:10079C00F023BB600023FB604FF4A0733B6102238A
:1007AC007B61FF23BB610023FB614FF4C0633B62A1
:1007BC0007237B624FF05043BB62F023FB624FF484
:1007CC00A0733B63002387F83430002387F835305F
:1007DC00002387F836303B1D00221946054801F0EE
:1007EC0003FF0346002B01D000F02AFA00BF383774
:1007FC00BD4680BDB40100200068014080B500AF4B
:10080C00174B184A1A60164B4FF482725A60144BED
:10081C0000229A60124B0022DA60114B00221A61FE
:10082C000F4B00225A610E4B4FF400729A610C4B25
:10083C001822DA610A4B00221A62094B00225A6212
:10084C00074B00229A62064B0A22DA62044804F033
:10085C00DBF90346002B01D000F0F2F900BF80BD9C
:10086C005C0200200050014080B586B000AF07F15B
:10087C00080300221A605A609A60DA603B46002234
:10088C001A605A601E4B1F4A1A601D4B00225A6098
:10089C001B4B00229A601A4B4FF6FF72DA60184B12
:1008AC0000221A61164B00225A61154B00229A61E4
:1008BC00134804F032FA0346002B01D000F0C0F9C3
:1008CC004FF48053BB6007F1080319460C4804F041
:1008DC00EBFB0346002B01D000F0B2F900233B6088
:1008EC0000237B603B461946054804F007FE03468F
:1008FC00002B01D000F0A4F900BF1837BD4680BD15
:10090C00B40200200000014080B500AF114B124A28
:10091C001A60104B4FF4E1325A600E4B00229A6071
:10092C000C4B0022DA600B4B00221A61094B0C2293
:10093C005A61084B00229A61064B0022DA61054885
:10094C0004F06CFE0346002B01D000F079F900BFD7
:10095C0080BD00BFFC0200200010014080B588B0B3
:10096C0000AF3B1D00221A605A609A60DA601A616F
:10097C005A619A611F4B204A1A601E4B01225A6021
:10098C001C4B00229A601B4B0422DA60194B10227C
:10099C001A61184B40225A61164B4FF4C0729A617F
:1009AC00144B0022DA61134B4FF400621A62114BA4
:1009BC0000225A620F4B4FF400529A6202237B6062
:1009CC000723BB600423FB6007233B6103237B618C
:1009DC000223BB610223FB613B1D1946054804F051
:1009EC00DFF80346002B01D000F02AF900BF2037B6
:1009FC00BD4680BD40030020400100A080B58EB0F4
:100A0C0000AF07F1240300221A605A609A60DA6082
:100A1C001A6100233B627B4B1B6B7A4A43F0040345
:100A2C001363784B1B6B03F004033B623B6A00239C
:100A3C00FB61744B1B6B734A43F020031363714BC4
:100A4C001B6B03F02003FB61FB690023BB616D4B47
:100A5C001B6B6C4A43F0800313636A4B1B6B03F0F4
:100A6C008003BB61BB6900237B61664B1B6B654AD2
:100A7C0043F001031363634B1B6B03F001037B61B6
:100A8C007B6900233B615F4B1B6B5E4A43F00203A7
:100A9C0013635C4B1B6B03F002033B613B6900234C
:100AAC00FB60584B1B6B574A43F040031363554B89
:100ABC001B6B03F04003FB60FB680023BB60514BD6
:100ACC001B6B504A43F0100313634E4B1B6B03F02C
:100ADC001003BB60BB6800237B604A4B1B6B494A0D
:100AEC0043F008031363474B1B6B03F008037B6055
:100AFC007B6800221621444801F00AFA002280216A
:100B0C00424801F005FA00224FF44051404801F0F0
:100B1C00FFF900224FF4C0413E4801F0F9F91623C9
:100B2C007B620123BB620023FB6200233B6307F162
:100B3C0024031946344801F03FF848F207037B625E
:100B4C004FF49013BB620023FB6207F12403194698
:100B5C002E4801F031F880237B620123BB62002315
:100B6C00FB6200233B6307F124031946274801F07D
:100B7C0023F820237B624FF49013BB620023FB62AB
:100B8C0007F124031946204801F016F804237B6270
:100B9C000023BB620023FB6207F1240319461E48A5
:100BAC0001F00AF84FF400637B620023BB62002360
:100BBC00FB6207F124031946154800F0FDFF4FF4C2
:100BCC0040537B620123BB620023FB6200233B6327
:100BDC0007F1240319460E4800F0EEFF4FF4C04312
:100BEC007B620123BB620023FB6200233B6307F1A2
:100BFC0024031946074800F0DFFF00BF3837BD4615
:100C0C0080BD00BF003802400008024000000240D6
:100C1C00000C0240001802400004024080B582B073
:100C2C0000AF78607B681B68044A934201D100F0E6
:100C3C0095FC00BF0837BD4680BD00BF00100040CA
:100C4C0080B400AF72B600BFFEE7000080B483B082
:100C5C0000AF00237B60104B5B6C0F4A43F4804366
:100C6C0053640D4B5B6C03F480437B607B68002307
:100C7C003B60094B1B6C084A43F080531364064BD2
:100C8C001B6C03F080533B603B6800BF0C37BD46C8
:100C9C005DF8047B704700BF0038024080B485B01B
:100CAC0000AF78607B681B680B4A93420DD1002320
:100CBC00FB600A4B1B6B094A43F480531363074BCD
:100CCC001B6B03F48053FB60FB6800BF1437BD46FD
:100CDC005DF8047B704700BF0030024000380240D2
:100CEC0080B584B000AF78607B681B680E4A934275
:100CFC0015D10023FB600D4B1B6B0C4A43F4000316
:100D0C0013630A4B1B6B03F40003FB60FB680022AC
:100D1C0005215A2000F01EFD5A2000F037FD00BFBF
:100D2C001037BD4680BD00BF00B002400038024005
:100D3C0080B58AB000AF786007F1140300221A6006
:100D4C005A609A60DA601A617B681B68294A934280
:100D5C004BD100233B61284B1B6B274A43F0040308
:100D6C001363254B1B6B03F004033B613B690023AE
:100D7C00FB60214B1B6B204A43F0010313631E4B9A
:100D8C001B6B03F00103FB60FB684FF400737B618A
:100D9C001223BB610123FB6100233B6204237B62B2
:100DAC0007F114031946154800F006FF4FF4807341
:100DBC007B611223BB610123FB6100233B62042393
:100DCC007B6207F1140319460D4800F0F5FE002371
:100DDC00BB60094B1B6C084A43F400031364064BBD
:100DEC001B6C03F40003BB60BB6800BF2837BD4617
:100DFC0080BD00BF005C004000380240000802408B
:100E0C000000024080B59AB000AF786007F154033F
:100E1C0000221A605A609A60DA601A6107F12403A2
:100E2C0030220021184609F079F87B681B68854A46
:100E3C00934240F0028108237B6232237B630223BE
:100E4C00FB630023BB6407F12403184603F0E8FCA2
:100E5C000346002B01D0FFF7F3FE00233B627A4BD5
:100E6C005B6C794A43F080635364774B5B6C03F0A3
:100E7C0080633B623B6A0023FB61734B1B6B724AC2
:100E8C0043F020031363704B1B6B03F02003FB61D7
:100E9C00FB690023BB616C4B1B6B6B4A43F001037A
:100EAC001363694B1B6B03F00103BB61BB6900232C
:100EBC007B61654B1B6B644A43F002031363624B0B
:100ECC001B6B03F002037B617B6900233B615E4B70
:100EDC001B6B5D4A43F0400313635B4B1B6B03F0CE
:100EEC0040033B613B690023FB60574B1B6B564A2D
:100EFC0043F004031363544B1B6B03F00403FB60BC
:100F0C00FB680023BB60504B1B6B4F4A43F008033C
:100F1C0013634D4B1B6B03F00803BB60BB684FF4B2
:100F2C0080637B650223BB650023FB6500233B6666
:100F3C000E237B6607F154031946444800F03CFE2F
:100F4C0041F658037B650223BB650023FB65002338
:100F5C003B660E237B6607F1540319463C4800F0B0
:100F6C002BFE03237B650223BB650023FB6500235B
:100F7C003B6609237B6607F154031946354800F09C
:100F8C001BFE4FF470637B650223BB650023FB657E
:100F9C0000233B660E237B6607F1540319462D484C
:100FAC0000F00AFE4FF40C637B650223BB65002343
:100FBC00FB6500233B660E237B6607F15403194641
:100FCC00254800F0F9FD4FF498637B650223BB655F
:100FDC000023FB6500233B660E237B6607F154035D
:100FEC0019461E4800F0E8FD48237B650223BB65CB
:100FFC000023FB6500233B660E237B6607F154033D
:10100C001946174800F0D8FD4FF4A0537B65022316
:10101C00BB650023FB6500233B6609237B6607F158
:10102C00540319460C4800F0C7FD00220521582036
:10103C0000F090FB582000F0A9FB00BF6837BD46BC
:10104C0080BD00BF0068014000380240001402401F
:10105C000000024000040240001802400008024058
:10106C00000C024080B58AB000AF786007F1140321
:10107C0000221A605A609A60DA601A617B681B68F9
:10108C00194A93422CD100233B61184B5B6C174AD5
:10109C0043F480135364154B5B6C03F480133B6176
:1010AC003B690023FB60114B1B6B104A43F0200380
:1010BC0013630E4B1B6B03F02003FB60FB684FF4B8
:1010CC0060737B610223BB610023FB6100233B62E5
:1010DC0005237B6207F114031946054800F06CFDEB
:1010EC0000BF2837BD4680BD00500140003802408B
:1010FC000014024080B485B000AF78607B681B6838
:10110C000B4A93420DD10023FB600A4B5B6C094ADE
:10111C0043F001035364074B5B6C03F00103FB606A
:10112C00FB6800BF1437BD465DF8047B704700BFF9
:10113C00000001400038024080B58AB000AF7860F2
:10114C0007F1140300221A605A609A60DA601A617F
:10115C007B681B68194A93422CD100233B61184BC6
:10116C005B6C174A43F010035364154B5B6C03F034
:10117C0010033B613B690023FB60114B1B6B104A56
:10118C0043F0010313630E4B1B6B03F00103FB6075
:10119C00FB684FF4C0637B610223BB610023FB61DE
:1011AC0003233B6207237B6207F1140319460548AE
:1011BC0000F002FD00BF2837BD4680BD0010014085
:1011CC00003802400000024080B586B000AF3B1DE5
:1011DC0000221A605A609A60DA601A613B4B1B68F5
:1011EC00002B6FD1394B01221A6000233B60384B26
:1011FC009B6B374A43F001039363354B9B6B03F0B6
:10120C0001033B603B684FF63F037B600223BB60EE
:10121C000023FB6003233B610C237B613B1D1946C0
:10122C002C4800F0C9FC01237B600223BB60002327
:10123C00FB6003233B610C237B613B1D1946264855
:10124C0000F0BAFC48F233137B600223BB6000232E
:10125C00FB6003233B610C237B613B1D19461F483C
:10126C0000F0AAFC4FF683737B600223BB60002363
:10127C00FB6003233B610C237B613B1D1946184823
:10128C0000F09AFC4CF203737B600223BB600023DA
:10129C00FB6003233B610C237B613B1D194611480A
:1012AC0000F08AFC60237B600223BB600023FB60A0
:1012BC0003233B610C237B613B1D19460A4800F05C
:1012CC007BFC00E000BF1837BD4680BD74030020D6
:1012DC00003802400014024000080240001802408E
:1012EC0000100240000C02400004024080B582B0A5
:1012FC0000AF7860FFF768FF00BF0837BD4680BDC0
:10130C0080B58EB000AF78600023FB620023BB6217
:10131C000023FB60334B1B6C324A43F01003136405
:10132C00304B1B6C03F01003FB60FB6807F11002E1
:10133C0007F114031146184603F040FA3B6AFB62AE
:10134C00FB6A002B03D103F011FA786304E003F07D
:10135C000DFA03465B007B637B6B234AA2FB0323E2
:10136C009B0C013BBB62214B214A1A601F4B40F284
:10137C00E732DA601D4ABB6A53601C4B00221A61CB
:10138C001A4B00229A60194B00229A61174803F0FD
:10139C00C4FC034687F8333097F83330002B1BD14D
:1013AC00124803F009FD034687F8333097F83330C1
:1013BC00002B11D1362000F0E9F97B680F2B08D8EF
:1013CC0000227968362000F0C5F90A4A7B68136060
:1013DC0002E0012387F8333097F83330184638375A
:1013EC00BD4680BD0038024083DE1B4378030020DD
:1013FC00001000400400002080B400AFFEE780B471
:10140C0000AFFEE780B400AFFEE780B400AFFEE7AC
:10141C0080B400AFFEE780B400AF00BFBD465DF8FE
:10142C00047B704780B400AF00BFBD465DF8047B01
:10143C00704780B400AF00BFBD465DF8047B7047B9
:10144C0080B400AF00BFBD465DF8047B7047000060
:10145C0080B500AF024803F01FFD00BF80BD00BF88
:10146C007803002080B500AF024801F0E2FB00BF1A
:10147C0080BD00BFA418002080B500AF024800F06A
:10148C00F1FF00BF80BD00BFB401002080B500AFEC
:10149C00024800F0EEF900BF80BD00BF2001002023
:1014AC0080B400AF064BD3F88830054A43F4700380
:1014BC00C2F8883000BFBD465DF8047B704700BFA2
:1014CC0000ED00E0DFF834D00D480E490E4A002341
:1014DC0002E0D458C4500433C4188C42F9D30B4ADC
:1014EC000B4C002301E013600432A242FBD3FFF744
:1014FC00D7FF08F0EFFCFEF7F5FF70470000032064
:10150C0000000020FC000020C09F0008FC00002010
:10151C00D01F0020FEE7000080B500AF0E4B1B680B
:10152C000D4A43F4007313600B4B1B680A4A43F4D7
:10153C0080631360084B1B68074A43F48073136085
:10154C00032000F0FCF80F20FFF7DAFEFFF77EFB1C
:10155C000023184680BD00BF003C024080B400AFA1
:10156C00064B1B781A46064B1B681344044A13603F
:10157C0000BFBD465DF8047B704700BF080000202B
:10158C00C003002080B400AF034B1B681846BD4657
:10159C005DF8047B704700BFC003002080B584B0A9
:1015AC0000AF7860FFF7EEFFB8607B68FB60FB680C
:1015BC00B3F1FF3F05D00A4B1B781A46FB68134466
:1015CC00FB6000BFFFF7DEFF0246BB68D31AFA6868
:1015DC009A42F7D800BF00BF1037BD4680BD00BF90
:1015EC000800002080B485B000AF78607B6803F001
:1015FC000703FB600C4BDB68BB60BA684FF6FF035C
:10160C001340BB60FB681A02BB68134343F0BF6313
:10161C0043F40033BB60044ABB68D36000BF14378B
:10162C00BD465DF8047B704700ED00E080B400AF70
:10163C00044BDB681B0A03F007031846BD465DF834
:10164C00047B704700ED00E080B483B000AF03462C
:10165C00FB7197F90730002B0BDBFB7903F01F02B2
:10166C00074997F907305B09012000FA02F241F8AB
:10167C00232000BF0C37BD465DF8047B704700BFCC
:10168C0000E100E080B483B000AF03463960FB7129
:10169C0097F90730002B0ADB3B68DAB20C4997F953
:1016AC0007301201D2B20B4483F800230AE03B68E6
:1016BC00DAB20849FB7903F00F03043B1201D2B2F2
:1016CC000B441A7600BF0C37BD465DF8047B70479F
:1016DC0000E100E000ED00E080B489B000AFF860FC
:1016EC00B9607A60FB6803F00703FB61FB69C3F127
:1016FC000703042B28BF0423BB61FB690433062BAF
:10170C0002D9FB69033B00E000237B614FF0FF3201
:10171C00BB6902FA03F3DA43BB681A407B699A404F
:10172C004FF0FF317B6901FA03F3D9437B680B401F
:10173C00134318462437BD465DF8047B704780B5CB
:10174C0082B000AF78607868FFF74CFF00BF0837B5
:10175C00BD4680BD80B586B000AF0346B9607A60E7
:10176C00FB7300237B61FFF761FF78617A68B968CE
:10177C007869FFF7B1FF024697F90F30114618460A
:10178C00FFF780FF00BF1837BD4680BD80B582B023
:10179C0000AF0346FB7197F907301846FFF754FF6B
:1017AC0000BF0837BD4680BD80B582B000AF786001
:1017BC007B68002B01D101230EE07B685B79DBB2E7
:1017CC00002B05D17B6800221A717868FFF766FA46
:1017DC007B6801225A71002318460837BD4680BD2C
:1017EC0080B582B000AF78607B68002B01D10123FB
:1017FC003BE07B6893F83930DBB2002B06D17B6879
:10180C00002283F838207868FFF76AFA7B68022296
:10181C0083F839207B681B681B6823F440317B6894
:10182C005A687B681B680A431A607B681B685B6B91
:10183C0023F007017B689A687B681B680A435A632C
:10184C007B681B681B6C23F47F5323F03F037A687F
:10185C00D1687A6812680B4313647B680022DA63E0
:10186C007B68012283F83920002318460837BD46CF
:10187C0080BD80B584B000AF78607B681B685B6806
:10188C00FB607B681B681B68BB60FB6803F0010393
:10189C00002B26D0BB6803F48073002B21D07B680F
:1018AC001B681A687B681B6822F480721A607B685C
:1018BC00DB6B43F001027B68DA637B681B680122F7
:1018CC009A607B68042283F839207B68002283F8B5
:1018DC0038207B685B69002B03D07B685B69786878
:1018EC009847FB6803F02003002B26D0BB6803F459
:1018FC000053002B21D07B681B681A687B681B681F
:10190C0022F400521A607B681B6820229A607B6864
:10191C00DB6B43F002027B68DA637B68042283F89A
:10192C0039207B68002283F838207B685B69002BA8
:10193C0003D07B685B6978689847FB6803F0080301
:10194C00002B26D0BB6803F40063002B21D07B68EE
:10195C001B681A687B681B6822F400621A607B683B
:10196C001B6808229A607B68DB6B43F004027B687F
:10197C00DA637B68042283F839207B68002283F8C1
:10198C0038207B685B69002B03D07B685B697868C7
:10199C009847FB6803F00403002B13D0BB6803F4D7
:1019AC008063002B0ED07B681B681A687B681B68F1
:1019BC0022F480621A607B681B6804229A60786843
:1019CC0000F053F8FB6803F00203002B24D0BB6833
:1019DC0003F40073002B1FD07B681B681A687B68AC
:1019EC001B6822F400721A607B681B6802229A60E2
:1019FC007B68DA6B7B68DA637B68012283F83920B9
:101A0C007B68002283F838207B681B69002B03D08D
:101A1C007B681B6978689847FB6803F01003002B00
:101A2C001FD0BB6803F48053002B1AD07B681B6853
:101A3C001A687B681B6822F480521A607B681B68EA
:101A4C0010229A607B68DA6B7B68DA637B68012210
:101A5C0083F839207B68002283F83820786800F0FE
:101A6C000EF800BF1037BD4680BD80B483B000AF08
:101A7C00786000BF0C37BD465DF8047B704780B4BE
:101A8C0083B000AF786000BF0C37BD465DF8047BB7
:101A9C007047000080B487B000AF786039607B6815
:101AAC005B68B3F5403F7B6893F83830012B01D16C
:101ABC00022379E07B68012283F838207B680222BC
:101ACC0083F839203B681B0118337A6813443B6157
:101ADC003B695A683B699B681B0413437B61354B1C
:101AEC00FB603B695B680A2B03D03B695B68092B85
:101AFC0007D13B69DB6803F07F437A6913437B6151
:101B0C0005E03B69DB681B067A6913437B613B6824
:101B1C00002B20D17B681B685A6AFB68DB4302EA06
:101B2C0003017B681B687A690A435A627B681B68ED
:101B3C003A6912689A613B695B680A2B03D03B696E
:101B4C005B68092B27D13B69DA687B681B6822F03C
:101B5C007F429A621FE07B681B68DA69FB68DB4393
:101B6C0002EA03017B681B687A690A43DA617B68C5
:101B7C001B683A6912681A613B695B680A2B03D0CF
:101B8C003B695B68092B06D13B69DA687B681B688B
:101B9C0022F07F421A627B68012283F839207B682D
:101BAC00002283F83820002318461C37BD465DF808
:101BBC00047B70470F0003FF80B489B000AF7860DE
:101BCC00396000237B6100233B610023BB61002350
:101BDC00FB6177E10122FB6902FA03F37B613B684D
:101BEC001B687A6913403B613A697B699A4240F001
:101BFC0066813B685B6803F00303012B05D03B68EF
:101C0C005B6803F00303022B30D17B689B68BB61DC
:101C1C00FB695B00032202FA03F3DB43BA6913404E
:101C2C00BB613B68DA68FB695B0002FA03F3BA69D3
:101C3C001343BB617B68BA699A607B685B68BB6164
:101C4C000122FB6902FA03F3DB43BA691340BB615F
:101C5C003B685B681B0903F00102FB6902FA03F3A2
:101C6C00BA691343BB617B68BA695A603B685B68AD
:101C7C0003F00303032B17D07B68DB68BB61FB69A4
:101C8C005B00032202FA03F3DB43BA691340BB6126
:101C9C003B689A68FB695B0002FA03F3BA69134369
:101CAC00BB617B68BA69DA603B685B6803F003036D
:101CBC00022B23D1FB69DA087B68083253F82230F7
:101CCC00BB61FB6903F007039B000F2202FA03F3CD
:101CDC00DB43BA691340BB613B681A69FB6903F0CB
:101CEC0007039B0002FA03F3BA691343BB61FB6958
:101CFC00DA087B680832B96943F822107B681B68E4
:101D0C00BB61FB695B00032202FA03F3DB43BA6994
:101D1C001340BB613B685B6803F00302FB695B002B
:101D2C0002FA03F3BA691343BB617B68BA691A60A0
:101D3C003B685B6803F44033002B00F0C080002349
:101D4C00FB60664B5B6C654A43F480435364634BA6
:101D5C005B6C03F48043FB60FB68614AFB699B0886
:101D6C00023352F82330BB61FB6903F003039B0081
:101D7C000F2202FA03F3DB43BA691340BB617B68A1
:101D8C00584A934237D07B68574A934231D07B688C
:101D9C00564A93422BD07B68554A934225D07B6898
:101DAC00544A93421FD07B68534A934219D07B68A4
:101DBC00524A934213D07B68514A93420DD07B68B0
:101DCC00504A934207D07B684F4A934201D1092372
:101DDC0012E00A2310E008230EE007230CE0062390
:101DEC000AE0052308E0042306E0032304E00223B1
:101DFC0002E0012300E00023FA6902F003029200E2
:101E0C009340BA691343BB613549FB699B080233A4
:101E1C00BA6941F823203D4B9B68BB613B69DB43AE
:101E2C00BA691340BB613B685B6803F48013002BF9
:101E3C0003D0BA693B691343BB61344ABB699360F5
:101E4C00324BDB68BB613B69DB43BA691340BB6156
:101E5C003B685B6803F40013002B03D0BA693B6941
:101E6C001343BB61294ABB69D360284B5B68BB61D8
:101E7C003B69DB43BA691340BB613B685B6803F4A5
:101E8C000033002B03D0BA693B691343BB611F4A73
:101E9C00BB6953601D4B1B68BB613B69DB43BA6973
:101EAC001340BB613B685B6803F48033002B03D0A9
:101EBC00BA693B691343BB61144ABB691360FB6984
:101ECC000133FB61FB690F2B7FF684AE00BF00BFB3
:101EDC002437BD465DF8047B704700BF00380240D4
:101EEC00003801400000024000040240000802409B
:101EFC00000C024000100240001402400018024086
:101F0C00001C02400020024000240240003C014022
:101F1C0080B483B000AF78600B467B8013467B7037
:101F2C007B78002B03D07A887B689A6103E07B88EE
:101F3C001A047B689A6100BF0C37BD465DF8047BC0
:101F4C007047000080B584B000AF78607B68002BD0
:101F5C0001D101232BE17B6893F83D30DBB2002BE0
:101F6C0006D17B68002283F83C207868FEF7E0FEFF
:101F7C007B68242283F83D207B681B681A687B6889
:101F8C001B6822F001021A607B681B681A687B6868
:101F9C001B6842F400421A607B681B681A687B68F5
:101FAC001B6822F400421A6002F0E0FBF8607B68C8
:101FBC005B68814A934207D8FB68804A934294BF7E
:101FCC0001230023DBB206E0FB687D4A934294BFF9
:101FDC0001230023DBB2002B01D00123E7E0FB68D7
:101FEC00784AA2FB03239B0CBB607B681B685B6875
:101FFC0023F03F017B681B68BA680A435A607B6810
:10200C001B681B6A23F03F017B685B686A4A93423A
:10201C0002D8BB68013309E0BB684FF4967202FB2F
:10202C0003F3694AA2FB03239B0901337A68126804
:10203C000B4313627B681B68DB6923F44F4222F06D
:10204C00FF027B685B685C498B4219D8FB68591EA0
:10205C007B685B685B00B1FBF3F3591C40F6FC73C7
:10206C000B40002B0AD0FB68591E7B685B685B0039
:10207C00B1FBF3F30133C3F30B0351E004234FE043
:10208C007B689B68002B11D1FB68581E7B685968D4
:10209C000B465B000B44B0FBF3F30133C3F30B03B0
:1020AC00002B0CBF01230023DBB212E0FB68581E8F
:1020BC007B6859680B469B000B4499000B44B0FBA2
:1020CC00F3F30133C3F30B03002B0CBF01230023E9
:1020DC00DBB2002B01D0012322E07B689B68002B34
:1020EC000ED1FB68581E7B6859680B465B000B448D
:1020FC00B0FBF3F30133C3F30B0343F400430FE0E2
:10210C00FB68581E7B6859680B469B000B44990072
:10211C000B44B0FBF3F30133C3F30B0343F4404321
:10212C00796809681343CB617B681B681B6823F0D3
:10213C00C0017B68DA697B681B6A1A437B681B6881
:10214C000A431A607B681B689B6823F4034323F0E3
:10215C00FF037A6811697A68D26811437A68126849
:10216C000B4393607B681B68DB6823F0FF017B6883
:10217C005A697B689B691A437B681B680A43DA605F
:10218C007B681B681A687B681B6842F001021A6046
:10219C007B6800221A647B68202283F83D207B68D0
:1021AC0000221A637B68002283F83E200023184625
:1021BC001037BD4680BD00BFA08601007F841E0085
:1021CC00FF083D0083DE1B43D34D621080B483B007
:1021DC0000AF786039607B6893F83D30DBB2202B20
:1021EC0029D17B68242283F83D207B681B681A6800
:1021FC007B681B6822F001021A607B681B685A6AB4
:10220C007B681B6822F010025A627B681B68596A53
:10221C007B681B683A680A435A627B681B681A68B9
:10222C007B681B6842F001021A607B68202283F8ED
:10223C003D20002300E0022318460C37BD465DF814
:10224C00047B704780B485B000AF786039600023A0
:10225C00FB817B6893F83D30DBB2202B2AD17B6865
:10226C00242283F83D207B681B681A687B681B68F6
:10227C0022F001021A607B681B685B6AFB81FB8998
:10228C0023F00F03FB813B689AB2FB891343FB815C
:10229C007B681B68FA895A627B681B681A687B68C2
:1022AC001B6842F001021A607B68202283F83D20F3
:1022BC00002300E0022318461437BD465DF8047B6A
:1022CC007047000080B584B000AF78607B68002B4D
:1022DC0001D10123BFE07B6893F8A130DBB2002B66
:1022EC0006D17B68002283F8A0207868FEF78AFD6F
:1022FC007B68022283F8A1207B681B689A697B6843
:10230C001B6822F070429A617B681B6899697B6834
:10231C005A687B689B681A437B68DB681A437B6846
:10232C001B691A437B681B680A439A617B681B68AC
:10233C0099687B681A684A4B0B4093607B685B69B1
:10234C001B04FB607B681B6899687B689A69FB6857
:10235C001A437B681B680A439A607B681B68D968C0
:10236C007B681A683E4B0B40D3607B68DB691B04AF
:10237C00FB607B681B68D9687B681A6AFB681A4328
:10238C007B681B680A43DA607B681B6819697B6889
:10239C001A68334B0B4013617B685B6A1B04FB6050
:1023AC007B681B6819697B689A6AFB681A437B68AF
:1023BC001B680A431A617B681B6859697B681A6839
:1023CC00274B0B4053617B68DB6A1B04FB607B680B
:1023DC001B6859697B681A6BFB681A437B681B681E
:1023EC000A435A617B6893F835301B02FB607B68AB
:1023FC0093F836301B04BB607B681B68DA6A7B6819
:10240C001B6802F07F42DA627B681B68D96ABA6883
:10241C00FB6813437A6892F834201A437B681B6874
:10242C000A43DA627B681B685A6B7B681B6842F054
:10243C0006025A637B681B689A697B681B6842F0CA
:10244C0001029A617B680022C3F8A4207B680122F8
:10245C0083F8A120002318461037BD4680BD00BF6D
:10246C0000F800F080B584B000AF78607B681B6822
:10247C009B6BFB607B681B685B6BBB60FB6803F052
:10248C000403002B23D0BB6803F00403002B1ED0E5
:10249C007B681B685A6B7B681B6822F004025A63CA
:1024AC007B681B680422DA637B68D3F8A43043F0A2
:1024BC0001027B68C3F8A4207B68042283F8A12066
:1024CC007B68002283F8A020786800F06FF8FB6826
:1024DC0003F00203002B23D0BB6803F00203002B94
:1024EC001ED07B681B685A6B7B681B6822F002024B
:1024FC005A637B681B680222DA637B68D3F8A430CA
:10250C0043F002027B68C3F8A4207B68042283F8A2
:10251C00A1207B68002283F8A020786800F046F8A0
:10252C00FB6803F00103002B1BD0BB6803F0010315
:10253C00002B16D07B681B685A6B7B681B6822F0DB
:10254C0001025A637B681B680122DA637B680122F3
:10255C0083F8A1207B68002283F8A020786800F023
:10256C002FF8FB6803F00803002B1BD0BB6803F0AB
:10257C000803002B16D07B681B685A6B7B681B68A2
:10258C0022F008025A637B681B680822DA637B68B6
:10259C00012283F8A1207B68002283F8A0207868B0
:1025AC0000F018F800BF1037BD4680BD80B483B072
:1025BC0000AF786000BF0C37BD465DF8047B7047F8
:1025CC0080B483B000AF786000BF0C37BD465DF8B7
:1025DC00047B704780B483B000AF786000BF0C37C9
:1025EC00BD465DF8047B7047B0B584B000AFF860B1
:1025FC00B9607A60FB6893F8A030012B01D10223FB
:10260C002CE0FB68012283F8A020FB68022283F8EF
:10261C00A120FA687B68342101FB03F3134403F116
:10262C003802BB6814461D460FCD0FC40FCD0FC426
:10263C000FCD0FC42B6823607A68B968F86800F076
:10264C0011F8FB681B6801225A62FB68012283F8AF
:10265C00A120FB68002283F8A02000231846103725
:10266C00BD46B0BD80B489B000AFF860B9607A6087
:10267C00BB685A68FB681B68DB681B0CC3F30B0355
:10268C0013441B04FB61FB681B681A467B68DB0167
:10269C00134484335B68FA68126811467A68D20175
:1026AC000A44843203F470435360BB681A68FB68B5
:1026BC001B68DB681B0CC3F30B0313445A1CFB682D
:1026CC001B6819467B68DB010B4484331946FB6994
:1026DC0013434B60BB68DA68FB681B68DB68C3F3A9
:1026EC000A0313441B04FB61FB681B681A467B68D6
:1026FC00DB01134484339B68FA68126811467A68CC
:10270C00D2010A44843203F470439360BB689A6824
:10271C00FB681B68DB68C3F30A0313445A1CFB6891
:10272C001B6819467B68DB010B4484331946FB6933
:10273C0013438B60FB681B681A467B68DB011344F0
:10274C0084331B69FA68126811467A68D2010A440C
:10275C00843223F007031361FB681B681A467B68FD
:10276C00DB01134484331A46BB681B691361BB68D5
:10277C0093F831301B02FB61BB6893F832301B04B9
:10278C00BB61BB689B691B067B61FB681B681A46B7
:10279C007B68DB01134484339B69FB681B681A4616
:1027AC007B68DB01134484331A4600239361BB68B6
:1027BC0093F830301A46FB691A43BB691A43FB681D
:1027CC001B6819467B68DB010B44843319467B6913
:1027DC0013438B61FB681B681A467B68DB0113444F
:1027EC0084335B69FA68126811467A68D2010A442C
:1027FC00843223F0FF035361FB681B681A467B6825
:10280C00DB01134484331A46BB685B695361FB6874
:10281C001B681A467B68DB0113448433DB69FA6856
:10282C00126811467A68D2010A44843223F4E063B8
:10283C0023F00703D361BB68DA69BB681B6AF968CC
:10284C00096808467968C901014484311343CB6196
:10285C00FB681B681A467B68DB01134484339B6A54
:10286C00FB681B681A467B68DB01134484331A46E9
:10287C0000239362FB681B681A467B68DB011344D8
:10288C0084331A46BB685B6A9362BB681B69002B76
:10289C0002D10423FB611BE0BB681B69012B02D135
:1028AC000323FB6114E0BB681B69042B0BD0BB68D2
:1028BC001B69022B07D0BB681B69032B03D0BB68B9
:1028CC001B69072B02D10223FB6101E00123FB6191
:1028DC00FB681B681A467B68DB0113448433DB6A94
:1028EC00FA68126811467A68D2010A44843203F0FD
:1028FC00E023D362BB689B6AFA6902FB03F31A04F8
:10290C00BB685968BB681B68CB1AF96901FB03F3F8
:10291C000333F968096808467968C90101448431B0
:10292C001343CB62FB681B681A467B68DB011344BC
:10293C0084331B6BFA68126811467A68D2010A4418
:10294C00843223F4FF6323F007031363FB681B68D3
:10295C001A467B68DB01134484331A46BB68DB6A76
:10296C001363FB681B681A467B68DB0113448433D2
:10297C001B68FA68126811467A68D2010A448432DC
:10298C0043F00103136000BF2437BD465DF8047BA0
:10299C007047F0B58FB00AAF78607B68002B01D11F
:1029AC0001230FE17B681B68BB607B6893F8BD3427
:1029BC00DBB2002B06D17B68002283F8BC2478683C
:1029CC0006F064FF7B68032283F8BD24BB68DB6BD5
:1029DC0003F48073002B02D17B6800221A617B68A0
:1029EC001B68184603F0B7FA7B681B683B607E686F
:1029FC006D4606F110040FCC0FC50FCC0FC594E833
:102A0C00030085E80300331D0ECB386803F08EF904
:102A1C000346002B05D07B68022283F8BD240123DA
:102A2C00D0E07B681B680021184603F0A5FA002350
:102A3C00FB734AE0FA7B79681346DB0013449B0076
:102A4C000B443D3301221A70FA7B79681346DB0084
:102A5C0013449B000B443C33FA7B1A70FA7BFB7BD0
:102A6C0098B279681346DB0013449B000B44443343
:102A7C0002461A80FA7B79681346DB0013449B00EC
:102A8C000B44403300221A70FA7B79681346DB0042
:102A9C0013449B000B44483300221A60FA7B79687C
:102AAC001346DB0013449B000B444C3300221A608A
:102ABC00FA7B79681346DB0013449B000B445433B8
:102ACC0000221A60FB7B0133FB73FA7B7B685B682B
:102ADC009A42AFD30023FB7344E0FA7B7968134628
:102AEC00DB0013449B000B4403F27D2300221A707D
:102AFC00FA7B79681346DB0013449B000B4403F507
:102B0C001F73FA7B1A70FA7B79681346DB00134447
:102B1C009B000B4403F5207300221A70FA7B796832
:102B2C001346DB0013449B000B4403F52273002275
:102B3C001A60FA7B79681346DB0013449B000B4444
:102B4C0003F5237300221A60FA7B79681346DB00C5
:102B5C0013449B000B4403F5257300221A60FB7B86
:102B6C000133FB73FA7B7B685B689A42B5D37B6855
:102B7C001B683B607E686D4606F110040FCC0FC5D8
:102B8C000FCC0FC594E8030085E80300331D0ECB72
:102B9C00386803F03DFA0346002B05D07B6802220F
:102BAC0083F8BD2401230DE07B68002283F83820D4
:102BBC007B68012283F8BD247B681B68184604F0EF
:102BCC008CFB002318461437BD46F0BD80B584B08D
:102BDC0000AF78607B681B68FB607B6893F8BC3443
:102BEC00012B01D1022320E07B68012283F8BC2455
:102BFC007B689B6A012B09D17B689B69012B05D0F3
:102C0C00FB689B6B43F48032FB689A637B681B68A0
:102C1C00184603F08FF97B681B68184604F03CFBE0
:102C2C007B68002283F8BC24002318461037BD466D
:102C3C0080BD90B58DB000AF78607B681B683B623F
:102C4C003B6AFB617B681B68184604F0FAFB034681
:102C5C00002B40F08A847B681B68184604F05EFBEE
:102C6C000346002B00F08084FB6903F500639B682E
:102C7C001B0AC3F30D027B68C3F8FC247B681B683A
:102C8C00184604F04BFB034603F00203022B07D15A
:102C9C007B681B685A697B681B6802F002025A61E8
:102CAC007B681B68184604F039FB034603F01003DD
:102CBC00102B61D17B681B689A697B681B6822F0BA
:102CCC0010029A613B6A1B6ABB61BB6903F00F027D
:102CDC001346DB0013449B0003F51E737A68134400
:102CEC0004337B61BB695B0C03F00F03022B24D113
:102CFC00BA6947F6F0731340002B35D07B6919691C
:102D0C00BB691B099BB2C3F30A039BB21A46386A10
:102D1C0004F070F97B691A69BB691B09C3F30A03D8
:102D2C001A447B691A617B691A6ABB691B09C3F374
:102D3C000A031A447B691A6216E0BB695B0C03F048
:102D4C000F03062B10D17B6803F2C44308221946EB
:102D5C00386A04F04FF97B691A6ABB691B09C3F323
:102D6C000A031A447B691A627B681B689A697B6840
:102D7C001B6842F010029A617B681B68184604F0CD
:102D8C00CDFA034603F40023B3F5002F40F0A780DF
:102D9C0000237B627B681B68184604F0D2FAB86289
:102DAC0099E0BB6A03F00103002B00F08E807B6876
:102DBC001B687A6AD2B21146184604F0F6FA3861EA
:102DCC003B6903F00103002B0CD07B6A5A01FB69B1
:102DDC00134403F530631A4601239360796A7868CB
:102DEC0000F0C2FE3B6903F00803002B0CD07B6A99
:102DFC005A01FB69134403F530631A4608239360A8
:102E0C00796A786800F098FF3B6903F01003002B97
:102E1C0008D07B6A5A01FB69134403F530631A46E8
:102E2C00102393603B6903F00203002B30D03B6A04
:102E3C005B6903F08003802B09D1FB6903F5006308
:102E4C005B68FA6902F5006243F4806353607A6A46
:102E5C001346DB0013449B0003F51E737A6813447E
:102E6C0004337B617B69DB78012B08D17B69002201
:102E7C00DA707B6ADBB21946786806F017FE7B6A5B
:102E8C005A01FB69134403F530631A46022393601D
:102E9C003B6903F02003002B08D07B6A5A01FB69C5
:102EAC00134403F530631A46202393603B6903F403
:102EBC000053002B09D07B6A5A01FB69134403F5BC
:102ECC0030631A464FF4005393607B6A01337B6284
:102EDC00BB6A5B08BB62BB6A002B7FF462AF7B688A
:102EEC001B68184604F01AFA034603F48023B3F562
:102EFC00802F40F0DB807B681B68184604F03BFA9F
:102F0C00B86200237B62CDE0BB6A03F00103002BA7
:102F1C0000F0C2807B681B687A6AD2B211461846F0
:102F2C0004F061FA38613B6903F00103002B57D0C0
:102F3C007B6A03F00F03012202FA03F3FB60FB69C7
:102F4C0003F500635A6BFB68DB43F96901F500611B
:102F5C0013404B637B6A5A01FB69134403F51063FE
:102F6C001A46012393607B681B69012B32D1796867
:102F7C007A6A1346DB0013449B000B444C331968EC
:102F8C0078687A6A1346DB0013449B000344483389
:102F9C001B68194478687A6A1346DB0013449B005B
:102FAC0003444C3319607B6A002B13D179687A6A1D
:102FBC001346DB0013449B000B4454331B68002B5B
:102FCC0008D17B6818687B6803F2C4431A46012158
:102FDC0004F068FA7B6ADBB21946786806F0E1FC0B
:102FEC003B6903F00803002B08D07B6A5A01FB698C
:102FFC00134403F510631A46082393603B6903F0EE
:10300C001003002B08D07B6A5A01FB69134403F5AB
:10301C0010631A46102393603B6903F04003002BA6
:10302C0008D07B6A5A01FB69134403F510631A46F6
:10303C00402393603B6903F00203002B23D0796A91
:10304C00386A03F049F97A6A1346DB0013449B0093
:10305C0038337A68134404337B617B69DB78012B4A
:10306C0008D17B690022DA707B6ADBB2194678687A
:10307C0006F02EFD7B6A5A01FB69134403F51063BD
:10308C001A46022393603B6903F08003002B03D0A4
:10309C00796A786800F0DBFC7B6A01337B62BB6A7F
:1030AC005B08BB62BB6A002B7FF42EAF7B681B688E
:1030BC00184604F033F9034603F00043B3F1004F14
:1030CC0022D1FB6903F500635B68FA6902F50062C3
:1030DC0023F0010353607B6893F8F434012B08D17F
:1030EC007B68002283F8F4240021786800F0C2FE8B
:1030FC0002E0786806F0CCFC7B681B685A697B6838
:10310C001B6802F000425A617B681B68184604F089
:10311C0005F9034603F40063B3F5006F12D1FB69A4
:10312C0003F500639B6803F00103012B02D178685F
:10313C0006F088FC7B681B685A697B681B6802F484
:10314C0000625A617B681B68184604F0E7F8034676
:10315C0003F48053B3F5805F40F0B780FB6903F54F
:10316C0000635B68FA6902F5006223F001035360A7
:10317C007B681B681021184603F0AEF80023FB6235
:10318C0046E0FB6A5A01FB69134403F510631A46C7
:10319C004FF67F339360FB6A5A01FB69134403F5C6
:1031AC0010631B68FA6A5101FA690A4402F510624D
:1031BC0023F400131360FB6A5A01FB69134403F5F3
:1031CC0030631A464FF67F339360FB6A5A01FB69F2
:1031DC00134403F530631B68FA6A5101FA690A4417
:1031EC0002F5306223F400131360FB6A5A01FB6989
:1031FC00134403F530631B68FA6A5101FA690A44F7
:10320C0002F5306243F000631360FB6A0133FB622A
:10321C007B685B68FA6A9A42B3D3FB6903F5006377
:10322C00DB69FA6902F5006243F00113D3617B6834
:10323C001B6B002B16D0FB6903F50063D3F88430AD
:10324C00FA6902F5006243F00B03C2F88430FB69A3
:10325C0003F500635B6CFA6902F5006243F00B0343
:10326C00536415E0FB6903F500635B69FA6902F5C9
:10327C00006243F4005343F02B035361FB6903F5E5
:10328C0000631B69FA6902F5006243F00B031361DA
:10329C00FB6903F500631B68FA6902F5006223F40D
:1032AC00FE6313607B6818687B681B69D9B27B6806
:1032BC0003F2C4431A4604F0F5F87B681B685A699C
:1032CC007B681B6802F480525A617B681B68184645
:1032DC0004F024F8034603F40053B3F5005F24D143
:1032EC007B681B68184604F0BAF87B681B681846A4
:1032FC0003F06FF803461A467B68DA607B681C683B
:10330C0001F028FA01467B68DB68DBB21A462046DE
:10331C0002F06EFD786806F06CFB7B681B685A69DE
:10332C007B681B6802F400525A617B681B68184664
:10333C0003F0F4FF034603F00803082B0AD1786866
:10334C0006F049FB7B681B685A697B681B6802F0B6
:10335C0008025A617B681B68184603F0DFFF0346BE
:10336C0003F08003802B22D13B6A9B6923F08002FF
:10337C003B6A9A6101237B6214E079687A6A13468E
:10338C00DB0013449B000B4403F27F231B78012BBF
:10339C0005D17B6ADBB21946786800F027FB7B6AA3
:1033AC0001337B627B685B687A6A9A42E5D37B68FF
:1033BC001B68184603F0B2FF034603F48013B3F501
:1033CC00801F3BD101237B622BE07B6A5A01FB6996
:1033DC00134403F510631B68BB6179687A6A134662
:1033EC00DB0013449B000B4440331B78012B15D19D
:1033FC00BB69002B12DA79687A6A1346DB00134436
:10340C009B000B443F3301221A707B6ADBB263F0E2
:10341C007F03DBB21946786800F0E8FA7B6A013367
:10342C007B627B685B687A6A9A42CED37B681B6846
:10343C005A697B681B6802F480125A617B681B68AE
:10344C00184603F06BFF034603F40013B3F5001F9B
:10345C0055D101237B6245E07B6A5A01FB69134419
:10346C0003F530631B68BB6179687A6A1346DB002D
:10347C0013449B000B4403F520731B78012B2ED1B6
:10348C00BB69002B2BDABB6903F480327B68D3F861
:10349C00FC3403F001039A4221D179687A6A13460D
:1034AC00DB0013449B000B4403F27F2301221A70B0
:1034BC003B6A9B6943F080023B6A9A613B6A5B6999
:1034CC0003F08003002B0AD1FB6903F500635B68F2
:1034DC00FA6902F5006243F40073536007E07B6AFB
:1034EC0001337B627B685B687A6A9A42B4D37B68EF
:1034FC001B685A697B681B6802F400125A617B686E
:10350C001B68184603F00AFF034603F08043B3F12F
:10351C00804F0AD1786806F0EDFA7B681B685A690F
:10352C007B681B6802F080425A617B681B681846F6
:10353C0003F0F4FE034603F00403042B15D17B685F
:10354C001B685B68BB61BB6903F00403002B02D0F2
:10355C00786806F0DDFA7B681B6859687B681B6825
:10356C00BA690A435A6000E000BF3437BD4690BDCB
:10357C0080B582B000AF78600B46FB707B6893F827
:10358C00BC34012B01D1022313E07B68012283F8A8
:10359C00BC247B68FA7883F838207B681B68FA783F
:1035AC001146184603F052FE7B68002283F8BC24B7
:1035BC00002318460837BD4680BD80B584B000AFE7
:1035CC007860084611461A460346FB700B463B8052
:1035DC001346BB700023FB7297F90330002B0FDAF4
:1035EC00FB7803F00F021346DB0013449B003833C7
:1035FC007A6813440433FB60FB6801225A700FE0B5
:10360C00FB7803F00F021346DB0013449B0003F519
:10361C001E737A6813440433FB60FB6800225A70F3
:10362C00FB7803F00F03DAB2FB681A703A88FB6878
:10363C00DA60FB68BA781A71FB685B78002B04D0EF
:10364C00FB681B789AB2FB681A81BB78022B02D1FB
:10365C00FB6800225A717B6893F8BC34012B01D1B2
:10366C0002230EE07B68012283F8BC247B681B6874
:10367C00F968184602F0D2FE7B68002283F8BC245D
:10368C00FB7A18461037BD4680BD80B584B000AFBC
:10369C0078600B46FB7097F90330002B0FDAFB7840
:1036AC0003F00F021346DB0013449B0038337A6897
:1036BC0013440433FB60FB6801225A700FE0FB7863
:1036CC0003F00F021346DB0013449B0003F51E733B
:1036DC007A6813440433FB60FB6800225A70FB7851
:1036EC0003F00F03DAB2FB681A707B6893F8BC34F2
:1036FC00012B01D102230EE07B68012283F8BC244C
:10370C007B681B68F968184602F010FF7B68002282
:10371C0083F8BC24002318461037BD4680BD80B505
:10372C0086B000AFF8607A603B600B46FB72FB7AA8
:10373C0003F00F021346DB0013449B0003F51E73CA
:10374C00FA68134404337B617B697A681A617B697C
:10375C003A689A617B6900221A627B6900225A706E
:10376C00FB7A03F00F03DAB27B691A70FB681B69F2
:10377C00012B02D17A687B695A61FB7A03F00F0343
:10378C00002B09D1FB681868FB681B69DBB21A4671
:10379C00796903F0EFF908E0FB681868FB681B69AE
:1037AC00DBB21A46796902F09DFF002318461837E0
:1037BC00BD4680BD80B483B000AF78600B46FB7013
:1037CC00FB7803F00F0279681346DB0013449B006F
:1037DC000B4403F527731B6818460C37BD465DF880
:1037EC00047B704780B586B000AFF8607A603B60B0
:1037FC000B46FB72FB7A03F00F021346DB001344FB
:10380C009B003833FA68134404337B617B697A6814
:10381C001A617B693A689A617B6900221A627B693A
:10382C0001225A70FB7A03F00F03DAB27B691A702B
:10383C00FB681B69012B02D17A687B695A61FB7AA0
:10384C0003F00F03002B09D1FB681868FB681B6998
:10385C00DBB21A46796903F08DF908E0FB68186849
:10386C00FB681B69DBB21A46796902F03BFF002347
:10387C0018461837BD4680BD80B584B000AF78605F
:10388C000B46FB70FB7803F00F027B685B689A4277
:10389C0001D9012350E097F90330002B0FDAFB78A4
:1038AC0003F00F021346DB0013449B0038337A6895
:1038BC0013440433FB60FB6801225A700DE0FA7864
:1038CC001346DB0013449B0003F51E737A68134404
:1038DC000433FB60FB6800225A70FB6801229A706B
:1038EC00FB7803F00F03DAB2FB681A707B6893F86D
:1038FC00BC34012B01D102231EE07B68012283F82A
:10390C00BC247B681B68F968184603F0CBFBFB787A
:10391C0003F00F03002B0AD17B6818687B681B69C6
:10392C00D9B27B6803F2C4431A4603F0BBFD7B6833
:10393C00002283F8BC24002318461037BD4680BDF6
:10394C0080B584B000AF78600B46FB70FB7803F059
:10395C000F027B685B689A4201D9012342E097F918
:10396C000330002B0FDAFB7803F00F021346DB0059
:10397C0013449B0038337A6813440433FB60FB68B0
:10398C0001225A700FE0FB7803F00F021346DB00A4
:10399C0013449B0003F51E737A6813440433FB60D5
:1039AC00FB6800225A70FB6800229A70FB7803F0C7
:1039BC000F03DAB2FB681A707B6893F8BC34012BE6
:1039CC0001D102230EE07B68012283F8BC247B68C2
:1039DC001B68F968184603F0D3FB7B68002283F858
:1039EC00BC24002318461037BD4680BD80B584B07A
:1039FC0000AF78600B46FB7097F90330002B0CDAA4
:103A0C00FB7803F00F021346DB0013449B003833A2
:103A1C007A6813440433FB600CE0FB7803F00F026C
:103A2C001346DB0013449B0003F51E737A681344A2
:103A3C000433FB607B681B68F968184603F0F2F9E5
:103A4C000346FB72FB7A18461037BD4680BD80B525
:103A5C008AB002AF786039607B681B687B617B69D8
:103A6C003B613A681346DB0013449B0038337A6899
:103A7C0013440433FB60FB681A6AFB689B699A4227
:103A8C0001D901236CE0FB689A69FB681B6AD31AA5
:103A9C00FB61FB68DB68FA699A4202D9FB68DB6858
:103AAC00FB61FB6903339B08BB612BE0FB689A69E4
:103ABC00FB681B6AD31AFB61FB68DB68FA699A42E4
:103ACC0002D9FB68DB68FB61FB6903339B08BB61B4
:103ADC00FB6819693B68DAB2FB6998B27B681B69B1
:103AEC00DBB200930346786903F046FAFB681A6967
:103AFC00FB691A44FB681A61FB681A6AFB691A4471
:103B0C00FB681A623B685A013B69134403F5106366
:103B1C009B699BB2BA699A4209D8FB681A6AFB681E
:103B2C009B699A4203D2FB689B69002BBED1FB6850
:103B3C009A69FB681B6A9A4211D83B6803F00F0321
:103B4C00012202FA03F3BB603B6903F500635A6B75
:103B5C00BB68DB43396901F5006113404B630023FB
:103B6C0018462037BD4680BD80B588B000AF786060
:103B7C0039607B681B68FB61FB69BB61FB693C338B
:103B8C0004331B687B613B685A01BB69134403F522
:103B9C0030639B683B617B681B69012B7BD13B6964
:103BAC0003F00803002B15D07B69614A934240F265
:103BBC00B9803B6903F40043002B00F0B3803B68F1
:103BCC005A01BB69134403F530631A464FF40043A2
:103BDC009360A7E03B6903F02003002B09D03B68FE
:103BEC005A01BB69134403F530631A4620239360D2
:103BFC0098E03B6903F02803002B40F093807B692D
:103C0C004B4A93420FD93B6903F40043002B0AD073
:103C1C003B685A01BB69134403F530631A464FF4F1
:103C2C00004393607EE03A681346DB0013449B002C
:103C3C0003F51E737A6813440433FB60FB68DA697E
:103C4C003B685901BB690B4403F530631B69C3F333
:103C5C001203D21AFB681A623B68002B14D1FB6862
:103C6C009B69002B09D17B6818687B6803F2C443FD
:103C7C001A46012103F016FC06E0FB681A69FB6882
:103C8C001B6A1A44FB681A613B68DBB219467868F8
:103C9C0005F06CFE46E07B69264A934224D13B69D1
:103CAC0003F40043002B0AD03B685A01BB69134450
:103CBC0003F530631A464FF40043936032E03B69DE
:103CCC0003F02003002B08D03B685A01BB69134456
:103CDC0003F530631A46202393603B68DBB2194628
:103CEC00786805F043FE1DE03B68002B14D1796821
:103CFC003A681346DB0013449B000B4403F5257311
:103D0C001B68002B08D17B6818687B6803F2C443DE
:103D1C001A46002103F0C6FB3B68DBB219467868F3
:103D2C0005F024FE002318462037BD4680BD00BF99
:103D3C000A30544F0A31544F80B586B000AF7860CA
:103D4C0039607B681B687B617B693B617B693C33B9
:103D5C0004331B68FB603B685A013B69134403F551
:103D6C0030639B68BB60FB68154A93420ED9BB68F5
:103D7C0003F40043002B09D03B685A013B69134400
:103D8C0003F530631A464FF400439360786805F0EE
:103D9C00DBFDFB680A4A93420CD97B681B69012B3B
:103DAC0008D17B6818687B6803F2C4431A4601216A
:103DBC0003F078FB002318461837BD4680BD00BFC2
:103DCC000A30544F80B485B000AF78600B46FB705E
:103DDC0013463B807B681B685B6ABB60FB78002BDF
:103DEC0007D13B8819047B681B68BA680A439A623E
:103DFC0028E07B681B689B6A1B0CBA681344BB6089
:103E0C000023FB730DE07B681A68FB7B40339B003F
:103E1C0013445B681B0CBA681344BB60FB7B013317
:103E2C00FB73FA7BFB78013B9A42ECD33B8818047A
:103E3C007B681968FB78013BBA68024340339B00EE
:103E4C000B445A60002318461437BD465DF8047BBA
:103E5C00704780B483B000AF78600B467B807B6882
:103E6C001B687A885A62002318460C37BD465DF8E9
:103E7C00047B704780B483B000AF78600B46FB7056
:103E8C0000BF0C37BD465DF8047B704780B586B02B
:103E9C0000AF78607B68002B01D1012367E27B685F
:103EAC001B6803F00103002B75D0884B9B6803F053
:103EBC000C03042B0CD0854B9B6803F00C03082BD4
:103ECC0012D1824B5B6803F48003B3F5800F0BD1E6
:103EDC007E4B1B6803F40033002B5BD07B685B6864
:103EEC00002B57D1012342E27B685B68B3F5803F1E
:103EFC0006D1764B1B68754A43F4803313601DE082
:103F0C007B685B68B3F5A02F0CD1704B1B686F4AB4
:103F1C0043F4802313606D4B1B686C4A43F480336D
:103F2C0013600BE0694B1B68684A23F48033136001
:103F3C00664B1B68654A23F4802313607B685B68BF
:103F4C00002B13D0FDF71EFB386108E0FDF71AFBC0
:103F5C0002463B69D31A642B01D9032307E25B4B5E
:103F6C001B6803F40033002BF0D014E0FDF70AFBC0
:103F7C00386108E0FDF706FB02463B69D31A642B57
:103F8C0001D90323F3E1514B1B6803F40033002BDD
:103F9C00F0D100E000BF7B681B6803F00203002B2C
:103FAC0063D04A4B9B6803F00C03002B0BD0474BA0
:103FBC009B6803F00C03082B1CD1444B5B6803F487
:103FCC008003002B16D1414B1B6803F00203002B1E
:103FDC0005D07B68DB68012B01D00123C7E13B4B8B
:103FEC001B6823F0F8027B681B69DB00374913431D
:103FFC000B603AE07B68DB68002B20D0344B01224D
:10400C001A60FDF7BFFA386108E0FDF7BBFA02460B
:10401C003B69D31A022B01D90323A8E12B4B1B6854
:10402C0003F00203002BF0D0284B1B6823F0F8029E
:10403C007B681B69DB00254913430B6015E0244B9F
:10404C0000221A60FDF79EFA386108E0FDF79AFA33
:10405C0002463B69D31A022B01D9032387E11B4B80
:10406C001B6803F00203002BF0D17B681B6803F084
:10407C000803002B36D07B685B69002B16D0154BE0
:10408C0001221A60FDF77EFA386108E0FDF77AFA32
:10409C0002463B69D31A022B01D9032367E10B4B70
:1040AC005B6F03F00203002BF0D01BE0094B0022E6
:1040BC001A60FDF767FA38610EE0FDF763FA024605
:1040CC003B69D31A022B07D9032350E10038024075
:1040DC0000004742800E4742884B5B6F03F002039F
:1040EC00002BEAD17B681B6803F00403002B00F063
:1040FC0097800023FB75814B1B6C03F08053002BC6
:10410C000FD10023BB607D4B1B6C7C4A43F080536A
:10411C0013647A4B1B6C03F08053BB60BB680123A8
:10412C00FB75774B1B6803F48073002B18D1744B11
:10413C001B68734A43F480731360FDF723FA3861EC
:10414C0008E0FDF71FFA02463B69D31A022B01D98E
:10415C0003230CE16A4B1B6803F48073002BF0D033
:10416C007B689B68012B06D1644B1B6F634A43F041
:10417C00010313671CE07B689B68052B0CD15F4B1C
:10418C001B6F5E4A43F0040313675C4B1B6F5B4A67
:10419C0043F0010313670BE0584B1B6F574A23F096
:1041AC0001031367554B1B6F544A23F00403136729
:1041BC007B689B68002B15D0FDF7E4F938610AE0A9
:1041CC00FDF7E0F902463B69D31A41F2883293427B
:1041DC0001D90323CBE0494B1B6F03F00203002BE7
:1041EC00EED014E0FDF7CEF938610AE0FDF7CAF91C
:1041FC0002463B69D31A41F28832934201D9032318
:10420C00B5E03E4B1B6F03F00203002BEED1FB7DA0
:10421C00012B05D1394B1B6C384A23F080531364A6
:10422C007B689B69002B00F0A180344B9B6803F0EA
:10423C000C03082B5CD07B689B69022B41D1314B62
:10424C0000221A60FDF79EF9386108E0FDF79AF933
:10425C0002463B69D31A022B01D9032387E0274B73
:10426C001B6803F00073002BF0D17B68DA697B6864
:10427C001B6A1A437B685B6A9B011A437B689B6AC7
:10428C005B08013B1B041A437B68DB6A1B061B495A
:10429C0013434B601B4B01221A60FDF773F9386115
:1042AC0008E0FDF76FF902463B69D31A022B01D9DE
:1042BC0003235CE0114B1B6803F00073002BF0D060
:1042CC0054E0104B00221A60FDF75CF9386108E0ED
:1042DC00FDF758F902463B69D31A022B01D9032387
:1042EC0045E0064B1B6803F00073002BF0D13DE05A
:1042FC007B689B69012B07D1012338E00038024011
:10430C0000700040600047421B4B5B68FB607B68A1
:10431C009B69012B28D0FB6803F480027B68DB6966
:10432C009A4221D1FB6803F03F027B681B6A9A42D8
:10433C001AD1FA6847F6C07313407A68526A920130
:10434C00934211D1FB6803F440327B689B6A5B0893
:10435C00013B1B049A4207D1FB6803F070627B6837
:10436C00DB6A1B069A4201D0012300E000231846A9
:10437C001837BD4680BD00BF0038024080B584B000
:10438C0000AF786039607B68002B01D10123CCE051
:10439C00684B1B6803F00F033A689A420CD9654BC3
:1043AC003A68D2B21A70634B1B6803F00F033A6879
:1043BC009A4201D00123B8E07B681B6803F002032A
:1043CC00002B20D07B681B6803F00403002B05D066
:1043DC00594B9B68584A43F4E05393607B681B68C5
:1043EC0003F00803002B05D0534B9B68524A43F44F
:1043FC0060439360504B9B6823F0F0027B689B6892
:10440C004D4913438B607B681B6803F00103002B41
:10441C0044D07B685B68012B07D1474B1B6803F4C6
:10442C000033002B19D101237FE07B685B68022BE2
:10443C0003D07B685B68032B07D13F4B1B6803F0F1
:10444C000073002B09D101236FE03B4B1B6803F079
:10445C000203002B01D1012367E0374B9B6823F04B
:10446C0003027B685B68344913438B60FDF78AF861
:10447C00F8600AE0FDF786F80246FB68D31A41F2B1
:10448C008832934201D903234FE02B4B9B6803F0F6
:10449C000C027B685B689B009A42EBD1254B1B6836
:1044AC0003F00F033A689A420CD2224B3A68D2B20C
:1044BC001A70204B1B6803F00F033A689A4201D024
:1044CC00012332E07B681B6803F00403002B08D047
:1044DC00194B9B6823F4E0527B68DB681649134345
:1044EC008B607B681B6803F00803002B09D0124B10
:1044FC009B6823F460427B681B69DB000E49134305
:10450C008B6000F021F802460B4B9B681B0903F0F3
:10451C000F030A49CB5C22FA03F3094A1360094BD7
:10452C001B681846FCF7ECFE002318461037BD46F6
:10453C0080BD00BF003C024000380240989F00083C
:10454C0000000020040000202DE9B04F94B000AF13
:10455C0000237B640023FB6400233B640023BB64C7
:10456C00794B9B6803F00C03082B0DD0082B00F241
:10457C00E180002B02D0042B03D0DBE0734BBB6437
:10458C00DBE0734BBB64D8E06F4B5B6803F03F031D
:10459C007B646D4B5B6803F48003002B63D06A4B28
:1045AC005B689B090022BB63FA63BB6BC3F3080314
:1045BC003B6300237B63D7E90C4522462B464FF027
:1045CC0000004FF00001590141EAD261500102464E
:1045DC000B462146511A3961294663EB01037B6175
:1045EC004FF000024FF00003D7E904AB59468B01A2
:1045FC00514643EA916351468A015146B2EB010898
:10460C00594663EB01094FF000024FF000034FEAEB
:10461C00C90343EA58734FEAC802904699462346A9
:10462C0018EB0303BB602B4649EB0303FB604FF015
:10463C0000024FF00003D7E9024529464B02214600
:10464C0043EAD15321464A02104619467B6C00229C
:10465C00BB62FA62D7E90A23FBF7C2FD02460B469E
:10466C001346FB6458E0384B5B689B0900221846E4
:10467C001146C0F308033B6200237B62D7E908892B
:10468C0042464B464FF000004FF00001590141EA01
:10469C00D261500102460B464146B2EB010A494633
:1046AC0063EB010B4FF000024FF000034FEA8B134A
:1046BC0043EA9A634FEA8A12B2EB0A0463EB0B05E6
:1046CC004FF000024FF00003EB0043EA5473E2009A
:1046DC0014461D464346E3183B604B4645EB03032B
:1046EC007B604FF000024FF00003D7E900452946EC
:1046FC008B02214643EA915321468A021046194601
:10470C007B6C0022BB61FA61D7E90623FBF768FDDD
:10471C0002460B461346FB640B4B5B681B0C03F009
:10472C00030301335B003B64FA6C3B6CB2FBF3F3A9
:10473C00BB6402E0054BBB6400BFBB6C1846503732
:10474C00BD46BDE8B08F00BF003802400024F40025
:10475C0000127A0080B400AF034B1B681846BD46AC
:10476C005DF8047B704700BF0000002080B500AFEF
:10477C00FFF7F0FF0246054B9B689B0A03F007030B
:10478C000349CB5C22FA03F3184680BD0038024083
:10479C00A89F000880B500AFFFF7DCFF0246054B71
:1047AC009B685B0B03F007030349CB5C22FA03F312
:1047BC00184680BD00380240A89F000880B483B022
:1047CC0000AF786039607B680F221A60124B9B68CF
:1047DC0003F003027B685A600F4B9B6803F0F002F6
:1047EC007B689A600C4B9B6803F4E0527B68DA6040
:1047FC00094B9B68DB0803F4E0527B681A61074B9A
:10480C001B6803F00F023B681A6000BF0C37BD46F3
:10481C005DF8047B704700BF00380240003C02404A
:10482C0080B586B000AF786000237B6100233B61CC
:10483C007B681B6803F00103002B0BD17B681B68A2
:10484C0003F00203002B05D17B681B6803F04003C7
:10485C00002B75D0914B00221A60FCF793FE786107
:10486C0008E0FCF78FFE02467B69D31A022B01D9B4
:10487C00032389E18A4B1B6803F00063002BF0D102
:10488C007B681B6803F00103002B09D07B685B6815
:10489C009A017B689B681B0781491343C1F88430DC
:1048AC007B681B6803F00203002B1FD07C4BD3F8F2
:1048BC0084301B0F03F007033B617B685B689A0134
:1048CC007B68DB681B061A433B691B07744913435F
:1048DC00C1F88430724BD3F88C3023F01F027B6804
:1048EC00DB69013B6E491343C1F88C307B681B6854
:1048FC0003F04003002B0DD07B685B689A017B684A
:10490C00DB681B061A437B689B681B0764491343CF
:10491C00C1F88430614B01221A60FCF733FE7861D8
:10492C0008E0FCF72FFE02467B69D31A022B01D953
:10493C00032329E15A4B1B6803F00063002BF0D0D2
:10494C007B681B6803F00403002B05D17B681B6894
:10495C0003F00803002B79D0524B00221A60FCF7AD
:10496C0011FE786108E0FCF70DFE02467B69D31A54
:10497C00022B01D9032307E1494B1B6803F00053B9
:10498C00B3F1005FEFD07B681B6803F00403002BCE
:10499C0020D0434BD3F888301B0F03F007033B6147
:1049AC007B681B699A017B685B691B061A433B6930
:1049BC001B073B491343C1F88830394BD3F88C3073
:1049CC0023F4F8527B681B6A013B1B0234491343E6
:1049DC00C1F88C307B681B6803F00803002B1ED0D9
:1049EC002F4BD3F888301B0E03F00F033B617B6811
:1049FC001B699A013B691B061A437B689B691B0761
:104A0C0027491343C1F88830254BD3F88C3023F455
:104A1C0040327B685B6A22491343C1F88C30214BCE
:104A2C0001221A60FCF7AEFD786108E0FCF7AAFDE4
:104A3C0002467B69D31A022B01D90323A4E0184B3D
:104A4C001B6803F00053B3F1005FEFD17B681B6868
:104A5C0003F02003002B00F08B800023FB60104B35
:104A6C001B6C0F4A43F0805313640D4B1B6C03F00B
:104A7C008053FB60FB680C4B1B680B4A43F4807340
:104A8C001360FCF77FFD786110E0FCF77BFD0246BC
:104A9C007B69D31A022B09D9032375E068004742BE
:104AAC00003802407000474200700040384B1B68D1
:104ABC0003F48073002BE8D0364B1B6F03F4407368
:104ACC003B613B69002B2FD07B689B6A03F44073DE
:104ADC003A699A4228D02F4B1B6F23F440733B61E9
:104AEC002D4B01221A602C4B00221A60294A3B697B
:104AFC001367284B1B6F03F00103012B14D1FCF738
:104B0C0041FD78610AE0FCF73DFD02467B69D31A52
:104B1C0041F28832934201D9032335E01D4B1B6FC0
:104B2C0003F00203002BEED07B689B6A03F4407306
:104B3C00B3F5407F0DD1174B9B6823F4F8127B68BB
:104B4C009B6A23F0704323F44073124913438B6028
:104B5C0005E0104B9B680F4A23F4F81393600D4B40
:104B6C001A6F7B689B6AC3F30B030A4913430B67E9
:104B7C007B681B6803F01003002B04D07B6893F850
:104B8C002C20064B1A60002318461837BD4680BDF2
:104B9C000070004000380240400E4742E01147428E
:104BAC0080B582B000AF786039607B68002B01D192
:104BBC00012325E07B6893F82C30DBB2002B06D167
:104BCC007B68002283F82D207868FCF78FFB7B68CC
:104BDC00022283F82C207B681A687B680433194600
:104BEC00104600F0DDFF7B6818687B685B681A462E
:104BFC00396801F032F87B68012283F82C200023FD
:104C0C0018460837BD4680BD80B582B000AF7860CD
:104C1C007B68002B01D101237BE07B685B6A002B56
:104C2C0008D17B685B68B3F5827F09D07B68002272
:104C3C00DA6105E07B6800221A617B6800225A6108
:104C4C007B6800229A627B6893F85130DBB2002BB0
:104C5C0006D17B68002283F850207868FCF702FAB2
:104C6C007B68022283F851207B681B681A687B687A
:104C7C001B6822F040021A607B685B6803F4827246
:104C8C007B689B6803F404431A437B68DB6803F47A
:104C9C0000631A437B681B6903F002031A437B68A9
:104CAC005B6903F001031A437B689B6903F400738F
:104CBC001A437B68DB6903F038031A437B681B6A71
:104CCC0003F0800342EA03017B689B6A03F4005201
:104CDC007B681B680A431A607B689B691B0C03F09A
:104CEC0004017B685B6A03F010027B681B680A4353
:104CFC005A607B681B68DA697B681B6822F4006267
:104D0C00DA617B6800225A657B68012283F85120A6
:104D1C00002318460837BD4680BD80B582B000AF71
:104D2C0078607B68002B01D1012341E07B6893F80C
:104D3C003D30DBB2002B06D17B68002283F83C208F
:104D4C007868FCF7D7F97B68022283F83D207B68F2
:104D5C001A687B6804331946104600F095FA7B6894
:104D6C00012283F846207B68012283F83E207B6871
:104D7C00012283F83F207B68012283F840207B6866
:104D8C00012283F841207B68012283F842207B6852
:104D9C00012283F843207B68012283F844207B683E
:104DAC00012283F845207B68012283F83D200023F3
:104DBC0018460837BD4680BD80B485B000AF78601A
:104DCC007B6893F83D30DBB2012B01D001234EE020
:104DDC007B68022283F83D207B681B68DA687B685D
:104DEC001B6842F00102DA607B681B68234A93421D
:104DFC0022D07B681B68B3F1804F1DD07B681B6889
:104E0C001F4A934218D07B681B681E4A934213D0EA
:104E1C007B681B681C4A93420ED07B681B681B4A3C
:104E2C00934209D07B681B68194A934204D07B6873
:104E3C001B68184A934211D17B681B689B6803F06E
:104E4C000703FB60FB68062B10D07B681B681A6895
:104E5C007B681B6842F001021A6007E07B681B68E4
:104E6C001A687B681B6842F001021A60002318461E
:104E7C001437BD465DF8047B704700BF000001404D
:104E8C000004004000080040000C004000040140F9
:104E9C00004001400018004080B582B000AF78603F
:104EAC007B681B681B6903F00203022B22D17B6811
:104EBC001B68DB6803F00203022B1BD17B681B68A9
:104ECC006FF002021A617B6801221A777B681B68FB
:104EDC009B6903F00303002B03D0786800F0B5F94D
:104EEC0005E0786800F0A7F9786800F0B8F97B68FD
:104EFC0000221A777B681B681B6903F00403042BE0
:104F0C0022D17B681B68DB6803F00403042B1BD1E4
:104F1C007B681B686FF004021A617B6802221A77A7
:104F2C007B681B689B6903F44073002B03D0786883
:104F3C0000F08BF905E0786800F07DF9786800F0F6
:104F4C008EF97B6800221A777B681B681B6903F05B
:104F5C000803082B22D17B681B68DB6803F008036D
:104F6C00082B1BD17B681B686FF008021A617B68E9
:104F7C0004221A777B681B68DB6903F00303002BA0
:104F8C0003D0786800F061F905E0786800F053F917
:104F9C00786800F064F97B6800221A777B681B68DC
:104FAC001B6903F01003102B22D17B681B68DB6894
:104FBC0003F01003102B1BD17B681B686FF01002E1
:104FCC001A617B6808221A777B681B68DB6903F41B
:104FDC004073002B03D0786800F037F905E078684F
:104FEC0000F029F9786800F03AF97B6800221A770A
:104FFC007B681B681B6903F00103012B0ED17B68D6
:10500C001B68DB6803F00103012B07D17B681B686D
:10501C006FF001021A617868FBF700FE7B681B6871
:10502C001B6903F08003802B0ED17B681B68DB6847
:10503C0003F08003802B07D17B681B686FF0800224
:10504C001A61786800F0E0FA7B681B681B6903F052
:10505C004003402B0ED17B681B68DB6803F04003D8
:10506C00402B07D17B681B686FF040021A6178688F
:10507C0000F0FFF87B681B681B6903F02003202BF2
:10508C000ED17B681B68DB6803F02003202B07D153
:10509C007B681B686FF020021A61786800F0AAFA2E
:1050AC0000BF0837BD4680BD80B584B000AF7860C6
:1050BC0039600023FB737B6893F83C30012B01D1E2
:1050CC000223B4E07B68012283F83C207B68022237
:1050DC0083F83D207B681B689B68BB60BB6823F032
:1050EC007703BB60BB6823F47F43BB607B681B68A2
:1050FC00BA689A603B681B68B3F5005F3ED0B3F5A5
:10510C00005F00F28780B3F5805F00F08680B3F516
:10511C00805F7FD8702B1AD0702B7BD8602B50D02F
:10512C00602B77D8502B3CD0502B73D8402B58D0B9
:10513C00402B6FD8302B64D0302B6BD8202B60D009
:10514C00202B67D8002B5CD0102B5AD062E07B68E8
:10515C0018683B6899683B685A683B68DB6800F0E4
:10516C00ADF97B681B689B68BB60BB6843F0770339
:10517C00BB607B681B68BA689A604FE07B681868F4
:10518C003B6899683B685A683B68DB6800F096F9A5
:10519C007B681B689A687B681B6842F480429A6043
:1051AC003CE07B6818683B6859683B68DB681A46CA
:1051BC0000F00AF97B681B685021184600F063F96F
:1051CC002CE07B6818683B6859683B68DB681A46BA
:1051DC0000F029F97B681B686021184600F053F930
:1051EC001CE07B6818683B6859683B68DB681A46AA
:1051FC0000F0EAF87B681B684021184600F043F980
:10520C000CE07B681A683B681B681946104600F076
:10521C003AF903E00123FB7300E000BF7B68012235
:10522C0083F83D207B68002283F83C20FB7B1846EA
:10523C001037BD4680BD80B483B000AF786000BF2E
:10524C000C37BD465DF8047B704780B483B000AF6B
:10525C00786000BF0C37BD465DF8047B704780B4A6
:10526C0083B000AF786000BF0C37BD465DF8047B9F
:10527C00704780B483B000AF786000BF0C37BD4678
:10528C005DF8047B7047000080B485B000AF786097
:10529C0039607B681B68FB607B68404A934213D083
:1052AC007B68B3F1804F0FD07B683D4A93420BD0A3
:1052BC007B683C4A934207D07B683B4A934203D0BD
:1052CC007B683A4A934208D1FB6823F07003FB6079
:1052DC003B685B68FA681343FB607B682F4A934218
:1052EC002BD07B68B3F1804F27D07B682C4A93423C
:1052FC0023D07B682B4A93421FD07B682A4A934267
:10530C001BD07B68294A934217D07B68284A93426A
:10531C0013D07B68274A93420FD07B68264A93426E
:10532C000BD07B68254A934207D07B68244A934272
:10533C0003D07B68234A934208D1FB6823F4407363
:10534C00FB603B68DB68FA681343FB60FB6823F087
:10535C0080023B685B691343FB607B68FA681A60E8
:10536C003B689A687B68DA623B681A687B689A6269
:10537C007B680A4A934203D07B680C4A934203D160
:10538C003B681A697B681A637B6801225A6100BF0B
:10539C001437BD465DF8047B704700BF0000014028
:1053AC000004004000080040000C004000040140D4
:1053BC0000400140004401400048014000180040FA
:1053CC00001C00400020004080B487B000AFF860A3
:1053DC00B9607A60FB681B6A7B61FB681B6A23F00F
:1053EC000102FB681A62FB689B693B613B6923F015
:1053FC00F0033B617B681B013A6913433B617B699A
:10540C0023F00A037B617A69BB6813437B61FB68F9
:10541C003A699A61FB687A691A6200BF1C37BD460B
:10542C005DF8047B704780B487B000AFF860B9605A
:10543C007A60FB681B6A23F01002FB681A62FB6837
:10544C009B697B61FB681B6A3B617B6923F470433E
:10545C007B617B681B037A6913437B613B6923F097
:10546C00A0033B61BB681B013A6913433B61FB68BA
:10547C007A699A61FB683A691A6200BF1C37BD46AB
:10548C005DF8047B704780B485B000AF78603960FC
:10549C007B689B68FB60FB6823F07003FB603A68D9
:1054AC00FB68134343F00703FB607B68FA689A6060
:1054BC0000BF1437BD465DF8047B704780B487B0DD
:1054CC0000AFF860B9607A603B60FB689B687B61F9
:1054DC007B6923F47F437B613B681A027B681A4328
:1054EC00BB6813437A6913437B61FB687A699A60E2
:1054FC0000BF1C37BD465DF8047B704780B485B097
:10550C0000AF786039607B6893F83C30012B01D197
:10551C0002235AE07B68012283F83C207B6802223C
:10552C0083F83D207B681B685B68FB607B681B68AD
:10553C009B68BB60FB6823F07003FB603B681B68D7
:10554C00FA681343FB607B681B68FA685A607B68D7
:10555C001B68214A934222D07B681B68B3F1804FB1
:10556C001DD07B681B681D4A934218D07B681B6852
:10557C001B4A934213D07B681B681A4A93420ED085
:10558C007B681B68184A934209D07B681B68174AD2
:10559C00934204D07B681B68154A93420CD1BB68BC
:1055AC0023F08003BB603B685B68BA681343BB6045
:1055BC007B681B68BA689A607B68012283F83D207F
:1055CC007B68002283F83C20002318461437BD4624
:1055DC005DF8047B704700BF0000014000040040F0
:1055EC0000080040000C0040000401400040014055
:1055FC000018004080B483B000AF786000BF0C3757
:10560C00BD465DF8047B704780B483B000AF786012
:10561C0000BF0C37BD465DF8047B704780B582B087
:10562C0000AF78607B68002B01D101233FE07B68E1
:10563C0093F83D30DBB2002B06D17B68002283F857
:10564C003C207868FBF778FD7B68242283F83D20AA
:10565C007B681B68DA687B681B6822F40052DA608E
:10566C00786800F029F87B681B681A697B681B68EE
:10567C0022F490421A617B681B685A697B681B682C
:10568C0022F02A025A617B681B68DA687B681B6807
:10569C0042F40052DA607B6800221A647B68202294
:1056AC0083F83D207B68202283F83E200023184697
:1056BC000837BD4680BD00002DE9B04FC0B000AF2B
:1056CC00C7F8F400D7F8F4301B681B6923F440507A
:1056DC00D7F8F430D968D7F8F4301A6840EA0103E7
:1056EC001361D7F8F4309A68D7F8F4301B691A4371
:1056FC00D7F8F4305B691A43D7F8F430DB691343FD
:10570C00C7F8F830D7F8F4301B68DB6823F416417F
:10571C0021F00C01D7F8F4301A68D7F8F8300B43A5
:10572C00D360D7F8F4301B685B6923F44070D7F86A
:10573C00F4309969D7F8F4301A6840EA01035361E0
:10574C00D7F8F4301A688F4B9A4205D0D7F8F4305A
:10575C001A688D4B9A4204D1FFF71CF8C7F8FC006D
:10576C0003E0FFF703F8C7F8FC00D7F8F430DB6967
:10577C00B3F5004F40F00C81D7F8FC300022C7F88D
:10578C00E830C7F8EC20D7E93A4522462B46911869
:10579C00B9655B41FB65D7E91623214612EB01087D
:1057AC00294643EB01094FF000024FF000034FEA8A
:1057BC00C90343EA58734FEAC802904699462346F8
:1057CC0018EB0303C7F8E0302B4649EB0303C7F88B
:1057DC00E430D7F8F4305B680022C7F8D830C7F84B
:1057EC00DC20D7E936120B46DB183B65134642EB3F
:1057FC0003037B65D7E91423D7E93801FAF7F0FCEA
:10580C0002460B46614BA3FB02235B091C01D7F834
:10581C00FC300022C7F8D030C7F8D420D7E934893F
:10582C0042464B469118B9645B41FB64D7E912239D
:10583C00414612EB010A494643EB010B4FF00002C3
:10584C004FF000034FEACB0343EA5A734FEACA0204
:10585C0092469B4643461AEB0303C7F8C8304B46A7
:10586C004BEB0303C7F8CC30D7F8F4305B6800225D
:10587C00C7F8C030C7F8C420D7E930120B46DB1884
:10588C003B64134642EB03037B64D7E91023D7E94F
:10589C003201FAF7A5FC02460B4611463B4BA3FB23
:1058AC0001235B09642202FB03F3CB1ADB0003F137
:1058BC003202364BA3FB02235B095B0003F4F87343
:1058CC001C44D7F8FC300022C7F8B830C7F8BC200D
:1058DC00D7E92E8942464B469118B9635B41FB636D
:1058EC00D7E90E2341465118396349464B417B6336
:1058FC004FF000024FF00003D7E90CAB5946CB0038
:10590C00514643EA51735146CA00104619460346A4
:10591C0042469B18C7F8B0304B460A4642EB03038D
:10592C00C7F8B430D7F8F4305B680022C7F8A83059
:10593C00C7F8AC20D7E92A120B46DB18BB6213461A
:10594C0042EB0303FB62D7E90A23D7E92C01FAF7F0
:10595C0047FC02460B460D4BA3FB02135B0964216B
:10596C0001FB03F3D31ADB003233084AA2FB0323F7
:10597C005B0903F00702D7F8F4301B6822449A60E5
:10598C0005E100BF00100140001401401F85EB51E0
:10599C00D7F8FC300022C7F8A030C7F8A420D7E90C
:1059AC00288942464B46911839625B417B62D7E9A4
:1059BC00082341465418494643EB01054FF00002B9
:1059CC004FF00003EB0043EA5473E20014461D460B
:1059DC004346E318C7F898304B4645EB0303C7F82A
:1059EC009C30D7F8F4305B680022C7F89030C7F8C9
:1059FC0094204FF000024FF00003D7E924452946CC
:105A0C008B00214643EA917321468A00D7E926018F
:105A1C00FAF7E6FB02460B46604BA3FB02235B093D
:105A2C001C01D7F8FC300022C7F88830C7F88C204E
:105A3C00D7E9228942464B469118B9615B41FB611B
:105A4C00D7E9062341465118396149464B417B61E0
:105A5C004FF000024FF00003D7E904AB5946CB00DE
:105A6C00514643EA51735146CA0010461946034643
:105A7C0042469B18C7F880304B460A4642EB03035C
:105A8C00C7F88430D7F8F4305B680022BB67FA673C
:105A9C004FF000024FF00003D7E91E8949468B00F6
:105AAC00414643EA917341468A00D7E92001FAF74F
:105ABC0097FB02460B46394BA3FB02135B0964218F
:105ACC0001FB03F3D31A1B013233344AA2FB032329
